:020000040000FA
:10000000000000EB240000EB2C008FE2000C90E8D5
:1000100000A08AE000B08BE001704AE20B005AE1D8
:100020000000001A1C0000EB0F00BAE818E04FE2D5
:10003000010013E303F0471013FF2FE164020000F7
:10004000740200000030B0E30040B0E30050B0E3C1
:100050000060B0E3102052E27800A128FCFFFF8A84
:10006000822EB0E13000A128003081451EFF2FE133
:1000700001C08FE21CFF2FE11FB5059886460FBC1B
:10008000009C02B07047000001C08FE21CFF2FE10E
:1000900030B47546AE4630BC704700001A0000EB25
:1000A0000210A0E1F1FFFFEB1CC09FE50FC08CE048
:1000B00001001CE30DE08F120FE0A0011CFF2FE1F7
:1000C00001C08FE21CFF2FE100F050F87801000022
:1000D0007847C04603002DE9EAFFFFEB0300BDE8C7
:1000E000290000EB0C009FE50C109FE504209FE524
:1000F00008309FE51EFF2FE16000004060040040D3
:100100006000004070477047704700000E50A0E14B
:100110001A0000EB05E0A0E10050B0E10D10A0E1F5
:100120000A30A0E10700C0E300D0A0E160D08DE27A
:1001300020402DE9EAFFFFEB2040BDE80060A0E38E
:100140000070A0E30080A0E300B0A0E30710C1E3CB
:1001500005C0A0E1C009ACE8C009ACE8C009ACE842
:10016000C009ACE801D0A0E11EFF2FE110B50400EA
:10017000C046C0462000FFF7ABFF10BC08BC1847C4
:1001800000009FE51EFF2FE10000004001C08FE24C
:100190001CFF2FE101491820ABDFFEE7260002001B
:1001A0001EFF2FE10F502DE930009FE5000090E584
:1001B000010C20E224109FE5000081E50500A0E38A
:1001C000080000EB0100A0E314109FE54001C1E529
:1001D0000000A0E3D00F00E50F50BDE804F05EE2A0
:1001E000008002E000C01FE00010A0E30A0000EA67
:1001F0000020A0E3020000EA013082E20328A0E12F
:100200002228A0E11C309FE5030052E1F9FFFFBA6C
:10021000013081E20318A0E12118A0E1000051E1C2
:10022000F2FFFFBA1EFF2FE1701700000200A0E3EB
:100230005C109FE50001C1E50100A0E34801C1E5B4
:100240000000A0E34C01C1E50100A0E34001C1E5CD
:1002500040009FE50010A0E3000F01E52E00A0E3A1
:10026000000E01E50109A0E3F00F01E50000A0E3A5
:10027000F40F00E50C00A0E31C109FE5000081E5F1
:10028000010CA0E30013C1E1080081E50000A0E13A
:10029000FEFFFFEA00C01FE0A401000000C002E072
:1002A000B002000000000040E8040000440000002C
:0400000500000000F7
:00000001FF
