:020000040800F2
:10300000600600206D310008753100087731000836
:10301000793100087B3100087D3100080000000094
:103020000000000000000000000000007F310008E8
:10303000813100080000000083310008853100085C
:103040008731000887310008873100088731000880
:103050008731000887310008873100088731000870
:103060008731000887310008873100088731000860
:103070008731000887310008873100088731000850
:103080008731000887310008873100088731000840
:103090008731000887310008873100088731000830
:1030A0008731000887310008873100088731000820
:1030B00087310008873100080000000087310008D0
:1030C0008731000800000000000000008731000880
:1030D0000000000087310008873100080000000070
:1030E00087310008873100088731000800F002F8B6
:1030F00000F02CF80AA090E8000C82448344AAF166
:103100000107DA4501D100F021F8AFF2090EBAE863
:103110000F0013F0010F18BFFB1A43F0010318470B
:10312000A8020000B80200000023002400250026A9
:10313000103A28BF78C1FBD8520728BF30C148BF1A
:103140000B6070471FB51FBD10B510BD00F031F802
:103150001146FFF7F7FF00F00BF900F04FF803B44A
:10316000FFF7F2FF03BC00F057F800000948804762
:1031700009480047FEE7FEE7FEE7FEE7FEE7FEE759
:10318000FEE7FEE7FEE7FEE704480549054A064B71
:103190007047000011330008ED3000086000002087
:1031A0006006002060020020600200207047704727
:1031B0007047754600F02CF8AE4605006946534648
:1031C00020F00700854618B020B5FFF7DDFFBDE809
:1031D00020404FF000064FF000074FF000084FF07E
:1031E000000B21F00701AC46ACE8C009ACE8C0090F
:1031F000ACE8C009ACE8C0098D46704710B504467C
:10320000AFF300802046BDE81040FFF7A8BF0000E4
:10321000004870470000002001491820ABBEFEE7BF
:1032200026000200704710B500F002F810BD000043
:103230000CB50020019000903348006840F48030C5
:103240003149086000BF3048006800F40030009049
:103250000198401C0190009818B90198B0F5A06F32
:10326000F1D12948006800F4003010B1012000902D
:1032700001E0002000900098012843D12348006815
:1032800040F01000214908600846006820F0030063
:1032900008600846006840F0020008601A4840686C
:1032A000194948600846406848600846406840F44C
:1032B000806048600846406820F47C1048600846FA
:1032C000406840F4E81048600846006840F08070AC
:1032D000086000BF0C48006800F000700028F9D0BA
:1032E0000948406820F003000749486008464068E4
:1032F00040F00200486000BF0348406800F00C0046
:103300000828F9D10CBD0000001002400020024046
:1033100010B51248006840F00100104908600846E6
:1033200040680F4908400D494860084600680D494B
:1033300008400A4908600846006820F480200860B8
:103340000846406820F4FE0048604FF41F00886083
:10335000FFF769FF04480549086010BD00100240EE
:103360000000FFF8FFFFF6FE0030000808ED00E067
:103370001349896941F01001114A91611149496865
:1033800021F470010F4A51601146496841F400115F
:10339000516013E04FF400510A4A1161002000E02F
:1033A000401CB0F57A7FFBDB4FF40051054A5161B8
:1033B000002000E0401CB0F57A7FFBDBEAE700006C
:1033C0000010024000100140D83300080000002027
:0833D00060060000283100082E
:04000005080030EDD2
:00000001FF
